:100000000C9462000C948A000C948A000C948A0070
:100010000C948A000C948A000C948A000C948A0038
:100020000C948A000C948A000C948A000C948A0028
:100030000C948A000C948A000C948A000C948A0018
:100040000C94FF020C948A000C94C2040C940905D1
:100050000C948A000C948A000C948A000C948A00F8
:100060000C948A000C948A000000000024002700F1
:100070002A0000000000250028002B0000000000DE
:1000800023002600290004040404040404040202DA
:100090000202020203030303030301020408102007
:1000A0004080010204081020010204081020000012
:1000B0000007000201000003040600000000000029
:1000C00000006F0611241FBECFEFD8E0DEBFCDBF0A
:1000D00011E0A0E0B1E0ECECF0E102C005900D927F
:1000E000A037B107D9F712E0A0E7B1E001C01D9237
:1000F000A032B107E1F710E0C4ECD0E004C02297D1
:10010000FE010E946008C23CD107C9F70E94F002BC
:100110000C948C000C940000F8940C94640884E017
:1001200060E00E941A0485E060E00E941A0486E004
:1001300060E00E941A0487E060E00E941A040895BB
:1001400088E060E00E941A0489E060E00E941A04DE
:100150008AE060E00E941A048BE060E00E941A04CA
:1001600008950E948F000E94A000089581E092E00F
:100170000E94FB059C018FEF2F3F3807B9F3C9019F
:1001800008958F929F92AF92BF92CF92DF92EF929B
:10019000FF920F931F93CF93DF936C01611571054D
:1001A00029F08DEC90E0861B970B71F4C0E0D0E055
:1001B000F601EC0FFD1F808160E00E941A04229678
:1001C000C830D105A9F736C002E010E0C0E0D0E0A9
:1001D000EE24FF244C01AA2497FCA094BA2CF80129
:1001E000EE0FFF1FEC0DFD1D808160E00E941A04E0
:1001F000FE01EE0FFF1FEC0DFD1D808161E00E94EE
:100200001A04C801019664E070E00E9429088C017C
:10021000CE01019664E070E00E942908EC01C5015E
:10022000B4010E9447030894E11CF11C84E0E81625
:10023000F104A9F6DF91CF911F910F91FF90EF90FC
:10024000DF90CF90BF90AF909F908F900895BC01AA
:1002500087E391E00E94C1000895BC018FE391E023
:100260000E94C1000895BC0187E491E00E94C10092
:100270000895BC018FE491E00E94C1000895CF93DE
:10028000DF93C0E0D0E088E060E00E941A0489E0DB
:1002900061E00E941A046AE070E080E090E00E9451
:1002A000470388E061E00E941A0489E060E00E9450
:1002B0001A046AE070E080E090E00E944703219613
:1002C000CA30D10501F70E94B100DF91CF910895A6
:1002D0004F925F926F927F928F929F92AF92BF9256
:1002E000CF92DF92EF92FF920F931F93CF93DF9302
:1002F0008CE00E946E048C018DE0602F0E941A0435
:100300000130110509F01CC181E092E00E94FB055B
:10031000EC0197FD31C184309105E0F4FC01EE0F52
:10032000FF1FE35DFE4F008111810E94B600009720
:1003300029F06DEC70E0681B790B49F4C230D105EF
:1003400018F40E94A00006C00E948F0003C0C801DC
:100350000E94C100C436D10539F4809135019091D5
:1003600036010E94390108C1C537D10539F48091A1
:100370003501909136010E943301FEC0CC36D10583
:1003800039F480913501909136010E942D01F4C01D
:10039000C237D10539F480913501909136010E9420
:1003A0002701EAC0C337D10519F40E94B100E4C0A7
:1003B000C137D10591F40E94B600853091051CF437
:1003C00085E090E005C0893C910514F088EC90E050
:1003D0009093360180933501CFC0C837D10529F5F8
:1003E0000E94B600009789F481E092E060E071E03D
:1003F0000E94E007609135017091360181E092E042
:100400004AE050E00E94C107B7C0019739F40E944A
:100410003F0181E092E06CE071E004C081E092E095
:1004200069E171E00E94E307A7C0C637D10509F072
:10043000A3C00E94B6008C010E94B6007C010E94FD
:10044000B600EC010E94B6009C010230110520F4B8
:10045000CE010297029748F0C230D10508F08CC057
:10046000C8010297029708F087C0D801AA0FBB1FE6
:10047000FE01EE0FFF1F2E153F055CF4A95ABE4F7B
:100480006D907C90E95AFE4F408051808701C901F0
:100490000AC0E95AFE4F60807180A95ABE4F4D9044
:1004A0005C908901C701009761F4C0E0D0E005C00D
:1004B00088EC90E0F30109952196C017D107C4F3A9
:1004C0005BC05C010894A11CB11CC801B5010E946D
:1004D00029084B016115710531F421E0822E912C20
:1004E000CC24DD2405C0C801B5010E9429086C0197
:1004F0008501EE24FF2420C0C016D10624F088EC2C
:1005000090E0F3010995C0E0D0E005C088EC90E0F0
:10051000F30109952196C815D905C4F388EC90E03C
:10052000F20109950C191D091016110614F00A0D97
:100530001B1D0894E11CF11CEA14FB04ECF21CC026
:10054000C0E0D0E088EC90E00E94270188EC90E0C9
:100550000E9433012196C233D105A1F7C0E0D0E05B
:1005600088EC90E00E942D0188EC90E00E94390117
:100570002196C233D105A1F7DF91CF911F910F9141
:10058000FF90EF90DF90CF90BF90AF909F908F90B3
:100590007F906F905F904F9008951F9314E0812F8C
:1005A00061E00E94DB031F5F1C30C9F78DE061E052
:1005B0000E94DB0382E060E00E94DB0383E060E0F6
:1005C0000E94DB038CE062E00E94DB0381E092E0AA
:1005D00040E855E260E070E00E9444051F910895F4
:1005E000CF93DF930E94A0030E94CD02C6EFD4E018
:1005F0000E9468012097E1F30E94F604F9CF1F9250
:100600000F920FB60F9211242F933F938F939F93C6
:10061000AF93BF938091740190917501A091760181
:10062000B0917701309178010196A11DB11D232F62
:100630002D5F2D3720F02D570196A11DB11D209360
:1006400078018093740190937501A0937601B09323
:1006500077018091700190917101A0917201B09128
:1006600073010196A11DB11D8093700190937101DA
:10067000A0937201B0937301BF91AF919F918F913D
:100680003F912F910F900FBE0F901F9018959B01D7
:10069000AC017FB7F8948091700190917101A091A5
:1006A0007201B091730166B5A89B05C06F3F19F048
:1006B0000196A11DB11D7FBFBA2FA92F982F8827A2
:1006C000860F911DA11DB11D62E0880F991FAA1F01
:1006D000BB1F6A95D1F7BC012DC0FFB7F89480917C
:1006E000700190917101A0917201B0917301E6B512
:1006F000A89B05C0EF3F19F00196A11DB11DFFBFDA
:10070000BA2FA92F982F88278E0F911DA11DB11DDB
:10071000E2E0880F991FAA1FBB1FEA95D1F7861B3D
:10072000970B885E9340C8F22150304040405040C3
:1007300068517C4F211531054105510571F6089529
:10074000789484B5826084BD84B5816084BD85B5AC
:10075000826085BD85B5816085BDEEE6F0E0808173
:1007600081608083E1E8F0E0108280818260808394
:10077000808181608083E0E8F0E080818160808317
:10078000E1EBF0E0808184608083E0EBF0E0808149
:1007900081608083EAE7F0E08081846080838081EB
:1007A0008260808380818160808380818068808393
:1007B0001092C1000895CF93DF93482F50E0CA01F3
:1007C00086569F4FFC0134914A575F4FFA0184913E
:1007D000882369F190E0880F991FFC01E859FF4FC9
:1007E000A591B491FC01EE58FF4FC591D4916623B9
:1007F00051F42FB7F8948C91932F909589238C9373
:10080000888189230BC0623061F42FB7F8948C91F2
:10081000932F909589238C938881832B88832FBF76
:1008200006C09FB7F8948C91832B8C939FBFDF9168
:10083000CF910895482F50E0CA0182559F4FFC0187
:100840002491CA0186569F4FFC0194914A575F4FED
:10085000FA013491332309F440C0222351F12330AB
:1008600071F0243028F42130A1F0223011F514C0A9
:100870002630B1F02730C1F02430D9F404C0809183
:1008800080008F7703C0809180008F7D80938000EF
:1008900010C084B58F7702C084B58F7D84BD09C038
:1008A0008091B0008F7703C08091B0008F7D8093DE
:1008B000B000E32FF0E0EE0FFF1FEE58FF4FA591C1
:1008C000B4912FB7F894662321F48C9190958923E5
:1008D00002C08C91892B8C932FBF0895682F70E0F4
:1008E000CB0182559F4FFC012491CB0186569F4F2F
:1008F000FC0144916A577F4FFB019491992319F4AD
:1009000020E030E03CC0222351F1233071F024304C
:1009100028F42130A1F0223011F514C02630B1F0B6
:100920002730C1F02430D9F404C0809180008F7743
:1009300003C0809180008F7D8093800010C084B5BB
:100940008F7702C084B58F7D84BD09C08091B000CF
:100950008F7703C08091B0008F7D8093B000892F86
:1009600090E0880F991F84589F4FFC01A591B49186
:100970008C9120E030E0842311F021E030E0C901C7
:10098000089508951F920F920FB60F9211242F937E
:100990003F934F938F939F93EF93FF934091C600A4
:1009A0002091B9013091BA012F5F3F4F2F73307002
:1009B0008091BB019091BC012817390759F0E09153
:1009C000B901F091BA01E758FE4F40833093BA0164
:1009D0002093B901FF91EF919F918F914F913F919A
:1009E0002F910F900FBE0F901F901895E0910D0260
:1009F000F0910E02E05CFF4F819191912081318155
:100A0000821B930B8F739070892B11F00E94C1048D
:100A100008951F920F920FB60F9211242F933F93B8
:100A20008F939F93EF93FF932091FD013091FE01EF
:100A30008091FF01909100022817390731F48091CD
:100A4000C1008F7D8093C10014C0E091FF01F0913F
:100A50000002E354FE4F20818091FF01909100023B
:100A600001968F739070909300028093FF01209302
:100A7000C600FF91EF919F918F913F912F910F9021
:100A80000FBE0F901F901895AF92BF92DF92EF921A
:100A9000FF920F931F93CF93DF93EC017A018B01A9
:100AA000DD24403081EE580780E0680780E0780759
:100AB00011F0DD24D39491E0A92EB12CEC89FD89AD
:100AC000DD2069F0C5010E8C02C0880F991F0A94C1
:100AD000E2F7808360E079E08DE390E005C010826A
:100AE00060E874E88EE190E0A80197010E943C085C
:100AF00021503040404050405695479537952795B6
:100B000080E12030380720F0DD2011F0DD24D6CF41
:100B1000E889F9893083EA89FB892083EE89FF8996
:100B2000408121E030E0C9010A8C02C0880F991F82
:100B30000A94E2F7482B4083EE89FF894081C9017E
:100B40000B8C02C0880F991F0A94E2F7482B408350
:100B5000EE89FF894081C9010C8C02C0880F991F62
:100B60000A94E2F7482B4083EE89FF8980810D8C3F
:100B700002C0220F331F0A94E2F720952823208316
:100B8000DF91CF911F910F91FF90EF90DF90BF9079
:100B9000AF900895DC011C96ED91FC911D97E05CEF
:100BA000FF4F2191319180819181281B390B2F7347
:100BB0003070C9010895DC011C96ED91FC911D97E0
:100BC000E05CFF4F20813181E054F040DF01AE5BFB
:100BD000BF4F8D919C9111972817390719F42FEF6A
:100BE0003FEF07C08D919C91E80FF91F8081282F5E
:100BF00030E0C9010895DC011C96ED91FC911D9730
:100C0000E05CFF4F20813181E054F040DF01AE5BBA
:100C1000BF4F8D919C9111972817390719F42FEF29
:100C20003FEF10C08D919C911197E80FF91F208123
:100C30008D919C91119701968F73907011969C9352
:100C40008E9330E0C9010895FC0186859785DC010B
:100C5000A05CBF4FFC01EE5BFF4F2D913C911197C3
:100C60008081918128173907C1F70895CF93DF93C9
:100C7000EC01EE85FF85E05CFF4F20813181E0547F
:100C8000F0402F5F3F4F2F733070DF01AE5BBF4FDF
:100C90008D919C91119728173907D1F3E05CFF4F94
:100CA00080819181E054F040E80FF91F6083EE8568
:100CB000FF85E05CFF4F31832083EE89FF8920812F
:100CC00081E090E00D8C02C0880F991F0A94E2F732
:100CD000282B208381E090E0DF91CF91089510923E
:100CE00004021092030288EE93E0A0E0B0E080934B
:100CF000050290930602A0930702B093080283E6D0
:100D000091E0909302028093010289E791E0909331
:100D10000E0280930D028DEB91E090931002809370
:100D20000F0285EC90E0909312028093110284EC04
:100D300090E0909314028093130280EC90E09093E3
:100D400016028093150281EC90E090931802809334
:100D5000170286EC90E090931A028093190284E0C7
:100D600080931B0283E080931C0287E080931D0226
:100D700085E080931E0281E080931F020895CF9248
:100D8000DF92EF92FF920F931F93CF93DF937C013B
:100D90006B018A01C0E0D0E00FC0D6016D916D01FA
:100DA000D701ED91FC910190F081E02DC7010995EB
:100DB000C80FD91F015010400115110571F7CE0160
:100DC000DF91CF911F910F91FF90EF90DF90CF9027
:100DD0000895EF92FF920F931F938C01DC01ED9128
:100DE000FC910190F081E02D6DE009957C01D80126
:100DF000ED91FC910190F081E02DC8016AE0099528
:100E00009C012E0D3F1DC9011F910F91FF90EF9086
:100E10000895CF93DF93DB010D900020E9F7119740
:100E2000A61BB70BEC01E881F9810280F381E02D6C
:100E3000AD010995DF91CF9108954F925F927F9216
:100E40008F929F92AF92BF92CF92DF92EF92FF92DA
:100E50000F931F93DF93CF93CDB7DEB7A1970FB654
:100E6000F894DEBF0FBECDBF2C01742ECB01223013
:100E700008F42AE019A231E2C32ED12CCC0EDD1EDB
:100E8000822E9924AA24BB24672D752FA5019401D5
:100E90000E943C0879018A01C801B701A5019401AB
:100EA0000E94F607472D461B0894C108D1084A3016
:100EB00014F4405D01C0495CF6014083E114F10483
:100EC0000105110521F07E2C5F2DC801DDCFC20187
:100ED000B6010E940907A1960FB6F894DEBF0FBEB7
:100EE000CDBFCF91DF911F910F91FF90EF90DF90D9
:100EF000CF90BF90AF909F908F907F905F904F90DA
:100F00000895CF92DF92EF92FF920F931F93CF93AA
:100F1000DF93EC016A017B012115310541F4E88181
:100F2000F9810190F081E02D642F09951FC02A30CE
:100F30003105D1F477FF17C0E881F9810190F08184
:100F4000E02D6DE209958C0144275527BA014C1913
:100F50005D096E097F09CE012AE00E941D079801F4
:100F6000280F391F04C02AE00E941D079C01C901F7
:100F7000DF91CF911F910F91FF90EF90DF90CF9075
:100F80000895CF92DF92EF92FF920F931F936C011F
:100F90007B019A010027F7FC0095102FB801A701EB
:100FA0000E9481078C01C6010E94E906080F191FE3
:100FB000C8011F910F91FF90EF90DF90CF9008959F
:100FC0000E9409070895EF92FF920F931F937C01EF
:100FD0000E9409078C01C7010E94E906080F191F2A
:100FE000C8011F910F91FF90EF900895629FD0016B
:100FF000739FF001829FE00DF11D649FE00DF11DD4
:10100000929FF00D839FF00D749FF00D659FF00D82
:101010009927729FB00DE11DF91F639FB00DE11D6F
:10102000F91FBD01CF0111240895AA1BBB1B51E17B
:1010300007C0AA1FBB1FA617B70710F0A61BB70B48
:10104000881F991F5A95A9F780959095BC01CD01ED
:10105000089597FB092E07260AD077FD04D0E5DF17
:1010600006D000201AF4709561957F4F0895F6F729
:10107000909581959F4F0895A1E21A2EAA1BBB1B44
:10108000FD010DC0AA1FBB1FEE1FFF1FA217B30754
:10109000E407F50720F0A21BB30BE40BF50B661F6A
:1010A000771F881F991F1A9469F76095709580952E
:1010B00090959B01AC01BD01CF010895EE0FFF1F7C
:0C10C0000590F491E02D0994F894FFCF06
:1010CC00706175736554696D653A20006D6F746F4E
:1010DC00725265736574282900556E6B6E6F776E4E
:1010EC002027782720636F6D6D616E640037013F98
:1010FC000147014F01C800080009000A000B000B52
:10110C00000A00090008000400050006000700079B
:10111C000006000500040027012D013301390100F0
:10112C000000003606BF06CA05FB05DB05240600D9
:00000001FF
