:100000000C9462000C948A000C948A000C948A0070
:100010000C948A000C948A000C948A000C948A0038
:100020000C948A000C948A000C948A000C948A0028
:100030000C948A000C948A000C948A000C948A0018
:100040000C9403020C948A000C94C6030C940D04C7
:100050000C948A000C948A000C948A000C948A00F8
:100060000C948A000C948A000000000024002700F1
:100070002A0000000000250028002B0000000000DE
:1000800023002600290004040404040404040202DA
:100090000202020203030303030301020408102007
:1000A0004080010204081020010204081020000012
:1000B0000007000201000003040600000000000029
:1000C0000000730511241FBECFEFD8E0DEBFCDBF07
:1000D00011E0A0E0B1E0E6E8FEE002C005900D927C
:1000E000A036B107D9F712E0A0E6B1E001C01D9239
:1000F000A031B107E1F710E0C4ECD0E004C02297D2
:10010000FE010E943D07C23CD107C9F70E94F401DD
:100110000C948C000C940000F8940C94410784E03B
:1001200060E00E941E0385E060E00E941E0386E0FE
:1001300060E00E941E0387E060E00E941E030895B5
:1001400088E060E00E941E0389E060E00E941E03D8
:100150008AE060E00E941E038BE060E00E941E03C4
:1001600008950E948F000E94A000089581EF91E001
:100170000E94FF049C018FEF2F3F3807B9F3C9019C
:100180000895CF92DF92EF92FF920F931F938C010D
:100190006B01FC01848160E00E941E03F8018081F4
:1001A00061E00E941E03EE24D7FCE094FE2CC70100
:1001B000B6010E944B02F801868160E00E941E0396
:1001C000F801828161E00E941E03C701B6010E940E
:1001D0004B02F801808160E00E941E03F8018481D7
:1001E00061E00E941E03C701B6010E944B02F801A4
:1001F000828160E00E941E03F801868161E00E9416
:100200001E03C701B6010E944B021F910F91FF9080
:10021000EF90DF90CF900895BC018FE291E00E94B3
:10022000C1000895BC0187E391E00E94C1000895D8
:10023000BC018FE391E00E94C1000895BC0187E4F6
:1002400091E00E94C1000895CF93DF93C0E0D0E019
:1002500088E060E00E941E0389E061E00E941E03C6
:100260006AE070E080E090E00E944B0288E061E08C
:100270000E941E0389E060E00E941E036AE070E0B5
:1002800080E090E00E944B022196CA30D10501F730
:100290000E94B100DF91CF9108950F931F938CE0DE
:1002A0000E9472038C018DE0602F0E941E030130BA
:1002B000110509F06FC081EF91E00E94FF0497FDE6
:1002C0006DC08436910539F480912D0190912E01F5
:1002D0000E941E0163C08537910539F480912D017C
:1002E00090912E010E94180159C08C36910539F465
:1002F00080912D0190912E010E9412014FC08237F2
:10030000910529F480912D0190912E0145C08337EC
:10031000910519F40E94B10041C08137910591F413
:100320000E94B600853091051CF485E090E005C080
:10033000893C910514F088EC90E090932E01809315
:100340002D012CC08837910549F50E94B600009711
:1003500089F481EF91E060E071E00E94E406609131
:100360002D0170912E0181EF91E04AE050E00E9452
:10037000C50614C0019739F40E94240181EF91E071
:100380006CE071E004C081EF91E069E171E00E94EE
:10039000E70604C085E090E00E940C011F910F91D8
:1003A00008951F9314E0812F61E00E94DF021F5F18
:1003B0001C30C9F78DE061E00E94DF0282E060E05E
:1003C0000E94DF0283E060E00E94DF028CE062E0D6
:1003D0000E94DF0281EF91E040E855E260E070E0CA
:1003E0000E9448041F910895CF93DF930E94A402B6
:1003F0000E94D101CAEFD3E00E944D012097E1F3A2
:100400000E94FA03F9CF1F920F920FB60F92112498
:100410002F933F938F939F93AF93BF9380916401EA
:1004200090916501A0916601B091670130916801DA
:100430000196A11DB11D232F2D5F2D3720F02D57C3
:100440000196A11DB11D20936801809364019093D2
:100450006501A0936601B09367018091600190915E
:100460006101A0916201B09163010196A11DB11DCE
:100470008093600190936101A0936201B093630146
:10048000BF91AF919F918F913F912F910F900FBE90
:100490000F901F9018959B01AC017FB7F894809145
:1004A000600190916101A0916201B091630166B514
:1004B000A89B05C06F3F19F00196A11DB11D7FBF1C
:1004C000BA2FA92F982F8827860F911DA11DB11D26
:1004D00062E0880F991FAA1FBB1F6A95D1F7BC0164
:1004E0002DC0FFB7F8948091600190916101A091B7
:1004F0006201B0916301E6B5A89B05C0EF3F19F01A
:100500000196A11DB11DFFBFBA2FA92F982F8827D3
:100510008E0F911DA11DB11DE2E0880F991FAA1F2A
:10052000BB1FEA95D1F7861B970B885E9340C8F2F4
:10053000215030404040504068517C4F21153105DA
:100540004105510571F60895789484B5826084BDA3
:1005500084B5816084BD85B5826085BD85B58160C7
:1005600085BDEEE6F0E0808181608083E1E8F0E027
:100570001082808182608083808181608083E0E856
:10058000F0E0808181608083E1EBF0E08081846035
:100590008083E0EBF0E0808181608083EAE7F0E037
:1005A000808184608083808182608083808181609B
:1005B00080838081806880831092C1000895CF93EA
:1005C000DF93482F50E0CA0186569F4FFC013491BB
:1005D0004A575F4FFA018491882369F190E0880FB0
:1005E000991FFC01E859FF4FA591B491FC01EE5809
:1005F000FF4FC591D491662351F42FB7F8948C9195
:10060000932F909589238C93888189230BC0623026
:1006100061F42FB7F8948C91932F909589238C9344
:100620008881832B88832FBF06C09FB7F8948C9155
:10063000832B8C939FBFDF91CF910895482F50E07B
:10064000CA0182559F4FFC012491CA0186569F4FD3
:10065000FC0194914A575F4FFA013491332309F416
:1006600040C0222351F1233071F0243028F421308E
:10067000A1F0223011F514C02630B1F02730C1F0BE
:100680002430D9F404C0809180008F7703C080911A
:1006900080008F7D8093800010C084B58F7702C06A
:1006A00084B58F7D84BD09C08091B0008F7703C071
:1006B0008091B0008F7D8093B000E32FF0E0EE0FCB
:1006C000FF1FEE58FF4FA591B4912FB7F894662302
:1006D00021F48C919095892302C08C91892B8C9365
:1006E0002FBF0895682F70E0CB0182559F4FFC010A
:1006F0002491CB0186569F4FFC0144916A577F4F4E
:10070000FB019491992319F420E030E03CC02223AE
:1007100051F1233071F0243028F42130A1F022303F
:1007200011F514C02630B1F02730C1F02430D9F4CF
:1007300004C0809180008F7703C0809180008F7DFE
:100740008093800010C084B58F7702C084B58F7D00
:1007500084BD09C08091B0008F7703C08091B00044
:100760008F7D8093B000892F90E0880F991F845867
:100770009F4FFC01A591B4918C9120E030E084233F
:1007800011F021E030E0C901089508951F920F9201
:100790000FB60F9211242F933F934F938F939F93F4
:1007A000EF93FF934091C6002091A9013091AA01D7
:1007B0002F5F3F4F2F7330708091AB019091AC0150
:1007C0002817390759F0E091A901F091AA01E759DA
:1007D000FE4F40833093AA012093A901FF91EF912E
:1007E0009F918F914F913F912F910F900FBE0F903E
:1007F0001F901895E091FD01F091FE01E05CFF4F24
:100800008191919120813181821B930B8F73907024
:10081000892B11F00E94C50308951F920F920FB605
:100820000F9211242F933F938F939F93EF93FF93F6
:100830002091ED013091EE018091EF019091F00156
:100840002817390731F48091C1008F7D8093C10052
:1008500014C0E091EF01F091F001E355FE4F2081CB
:100860008091EF019091F00101968F7390709093B9
:10087000F0018093EF012093C600FF91EF919F91CB
:100880008F913F912F910F900FBE0F901F90189551
:10089000AF92BF92DF92EF92FF920F931F93CF938D
:1008A000DF93EC017A018B01DD24403081EE5807A3
:1008B00080E0680780E0780711F0DD24D39491E0B0
:1008C000A92EB12CEC89FD89DD2069F0C5010E8CC3
:1008D00002C0880F991F0A94E2F7808360E079E0F4
:1008E0008DE390E005C0108260E874E88EE190E04E
:1008F000A80197010E941907215030404040504004
:10090000569547953795279580E12030380720F098
:10091000DD2011F0DD24D6CFE889F9893083EA891A
:10092000FB892083EE89FF89408121E030E0C90105
:100930000A8C02C0880F991F0A94E2F7482B408363
:10094000EE89FF894081C9010B8C02C0880F991F75
:100950000A94E2F7482B4083EE89FF894081C90160
:100960000C8C02C0880F991F0A94E2F7482B408331
:10097000EE89FF8980810D8C02C0220F331F0A94FB
:10098000E2F7209528232083DF91CF911F910F91CB
:10099000FF90EF90DF90BF90AF900895DC011C9620
:1009A000ED91FC911D97E05CFF4F21913191808189
:1009B0009181281B390B2F733070C9010895DC0118
:1009C0001C96ED91FC911D97E05CFF4F20813181D9
:1009D000E054F040DF01AE5BBF4F8D919C911197C9
:1009E0002817390719F42FEF3FEF07C08D919C911D
:1009F000E80FF91F8081282F30E0C9010895DC013C
:100A00001C96ED91FC911D97E05CFF4F2081318198
:100A1000E054F040DF01AE5BBF4F8D919C91119788
:100A20002817390719F42FEF3FEF10C08D919C91D3
:100A30001197E80FF91F20818D919C9111970196D4
:100A40008F73907011969C938E9330E0C901089536
:100A5000FC0186859785DC01A05CBF4FFC01EE5B45
:100A6000FF4F2D913C911197808191812817390773
:100A7000C1F70895CF93DF93EC01EE85FF85E05C2D
:100A8000FF4F20813181E054F0402F5F3F4F2F73A3
:100A90003070DF01AE5BBF4F8D919C91119728178D
:100AA0003907D1F3E05CFF4F80819181E054F04041
:100AB000E80FF91F6083EE85FF85E05CFF4F31830F
:100AC0002083EE89FF89208181E090E00D8C02C0B7
:100AD000880F991F0A94E2F7282B208381E090E089
:100AE000DF91CF9108951092F4011092F30188EEF6
:100AF00093E0A0E0B0E08093F5019093F601A0931D
:100B0000F701B093F80183E591E09093F2018093AF
:100B1000F10189E691E09093FE018093FD018DEA59
:100B200091E0909300028093FF0185EC90E0909318
:100B300002028093010284EC90E09093040280937F
:100B4000030280EC90E0909306028093050281EC12
:100B500090E0909308028093070286EC90E09093D7
:100B60000A028093090284E080930B0283E0809361
:100B70000C0287E080930D0285E080930E0281E0F5
:100B800080930F020895CF92DF92EF92FF920F931E
:100B90001F93CF93DF937C016B018A01C0E0D0E00B
:100BA0000FC0D6016D916D01D701ED91FC910190BF
:100BB000F081E02DC7010995C80FD91F01501040E1
:100BC0000115110571F7CE01DF91CF911F910F91A2
:100BD000FF90EF90DF90CF900895EF92FF920F93E8
:100BE0001F938C01DC01ED91FC910190F081E02DCF
:100BF0006DE009957C01D801ED91FC910190F081A7
:100C0000E02DC8016AE009959C012E0D3F1DC90128
:100C10001F910F91FF90EF900895CF93DF93DB0129
:100C20000D900020E9F71197A61BB70BEC01E881A6
:100C3000F9810280F381E02DAD010995DF91CF911B
:100C400008954F925F927F928F929F92AF92BF9240
:100C5000CF92DF92EF92FF920F931F93DF93CF9388
:100C6000CDB7DEB7A1970FB6F894DEBF0FBECDBFEC
:100C70002C01742ECB01223008F42AE019A231E2B3
:100C8000C32ED12CCC0EDD1E822E9924AA24BB2487
:100C9000672D752FA50194010E94190779018A011A
:100CA000C801B701A50194010E94FA06472D461B11
:100CB0000894C108D1084A3014F4405D01C0495C71
:100CC000F6014083E114F1040105110521F07E2CA9
:100CD0005F2DC801DDCFC201B6010E940D06A196AD
:100CE0000FB6F894DEBF0FBECDBFCF91DF911F913D
:100CF0000F91FF90EF90DF90CF90BF90AF909F90BB
:100D00008F907F905F904F900895CF92DF92EF92F7
:100D1000FF920F931F93CF93DF93EC016A017B0146
:100D20002115310541F4E881F9810190F081E02D30
:100D3000642F09951FC02A303105D1F477FF17C001
:100D4000E881F9810190F081E02D6DE209958C0137
:100D500044275527BA014C195D096E097F09CE0158
:100D60002AE00E9421069801280F391F04C02AE0BA
:100D70000E9421069C01C901DF91CF911F910F9123
:100D8000FF90EF90DF90CF900895CF92DF92EF9297
:100D9000FF920F931F936C017B019A010027F7FCD0
:100DA0000095102FB801A7010E9485068C01C6018D
:100DB0000E94ED05080F191FC8011F910F91FF90A8
:100DC000EF90DF90CF9008950E940D060895EF9266
:100DD000FF920F931F937C010E940D068C01C701A7
:100DE0000E94ED05080F191FC8011F910F91FF9078
:100DF000EF900895629FD001739FF001829FE00DF4
:100E0000F11D649FE00DF11D929FF00D839FF00D89
:100E1000749FF00D659FF00D9927729FB00DE11D35
:100E2000F91F639FB00DE11DF91FBD01CF01112412
:100E30000895A1E21A2EAA1BBB1BFD010DC0AA1F1B
:100E4000BB1FEE1FFF1FA217B307E407F50720F033
:100E5000A21BB30BE40BF50B661F771F881F991FAE
:100E60001A9469F760957095809590959B01AC01F7
:100E7000BD01CF010895EE0FFF1F0590F491E02D05
:060E80000994F894FFCF75
:100E8600706175736554696D653A20006D6F746F96
:100E9600725265736574282900556E6B6E6F776E96
:100EA6002027782720636F6D6D616E64000500084A
:100EB6000009000A000B000B000A000900080004E4
:100EC60000050006000700070006000500040000F4
:100ED6000000003A05C305CE04FF04DF0428050020
:00000001FF
